:100000000C9462000C948A000C948A000C948A0070
:100010000C948A000C948A000C948A000C948A0038
:100020000C948A000C948A000C948A000C948A0028
:100030000C948A000C948A000C948A000C948A0018
:100040000C9416030C948A000C948A000C948A0079
:100050000C948A000C948A000C948A000C948A00F8
:100060000C948A000C948A000000000024002700F1
:100070002A0000000000250028002B0000000000DE
:1000800023002600290004040404040404040202DA
:100090000202020203030303030301020408102007
:1000A0004080010204081020010204081020000012
:1000B0000007000201000003040600000000000029
:1000C00000008C0011241FBECFEFD8E0DEBFCDBFF3
:1000D00011E0A0E0B1E0E4E8FAE002C005900D9282
:1000E000A834B107D9F711E0A8E4B1E001C01D922E
:1000F000A636B107E1F710E0C4ECD0E004C02297C7
:10010000FE010E943C05C23CD107C9F70E94E204EF
:100110000C9440050C940000CF92EF920F9388E46A
:1001200091E06CE04BE025E004E053E0E52E32E0A6
:10013000C32E0E94DD020F91EF90CF9008958AE0C8
:100140000E948F04892B99F488E491E00E941F0299
:1001500089E061E00E943B0488E491E060E040E0D7
:100160000E94F00188E491E060E071E01EC088E444
:1001700091E00E941F0289E060E00E943B0488E455
:1001800091E060E040E00E94F00188E491E06EE0E0
:1001900071E00E94370588E491E060E041E00E9450
:1001A000F00188E491E068E171E00E94370564E1C4
:1001B00070E080E090E00E945E0308951F9388E461
:1001C00091E060E142E020E00E9427028AE062E0E4
:1001D0000E94FC0389E061E00E94FC0388E491E056
:1001E00061E271E00E94370588E491E060E041E05F
:1001F0000E94F00188E491E060E371E00E9437051D
:1002000068EE73E080E090E00E945E0388E491E095
:100210000E941F0210E088E491E0612F41E00E94FB
:10022000F00188E491E060E371E00E94370568EC3A
:1002300070E080E090E00E945E0388E491E00E941C
:100240001F021F5F103139F71F9108950F931F93FD
:100250008C01FC01868160E00E943B0481E090E01B
:100260000E94B703F801868161E00E943B0481E0AF
:1002700090E00E94B703F801868160E00E943B0491
:1002800084E690E00E94B7031F910F910895CF92EA
:10029000DF92EF92FF920F931F93CF93DF93D82EAD
:1002A000C92E282F392FC9018C01C0E0D0E0E62EDD
:1002B000FF24F801878161E00E94FC03B7010C2E46
:1002C00002C0759567950A94E2F76170F80187811D
:1002D0000E943B0421960F5F1F4FC830D10549F79C
:1002E0008D2D9C2D0E942601DF91CF911F910F91A2
:1002F000FF90EF90DF90CF900895CF92DF92EF9232
:10030000FF920F931F93CF93DF93D82EC92E282FE0
:10031000392FC9018C01C0E0D0E0E62EFF24F8019E
:10032000878161E00E94FC03B7010C2E02C0759525
:1003300067950A94E2F76170F80187810E943B0497
:1003400021960F5F1F4FC430D10549F78D2D9C2D8D
:100350000E942601DF91CF911F910F91FF90EF90A6
:10036000DF90CF9008951F93CF93DF93EC01162F6A
:100370008C81642F0E943B048D818F3F19F060E0D7
:100380000E943B048F8584FF05C0CE01612F0E942F
:1003900047010EC0612F70E084E0759567958A95DE
:1003A000E1F7CE010E947D01CE01612F0E947D0107
:1003B000DF91CF911F91089541E00E94B30181E048
:1003C00090E0089540E00E94B3010895FC01608927
:1003D000862F8460808B6C60CF010E94E2010895BB
:1003E000DF93CF93CDB7DEB728970FB6F894DEBF73
:1003F0000FBECDBF9C01FE013196AFE3B1E088E0B6
:100400000D9001928150E1F7F9018389481710F0AE
:10041000482F4150E42FF0E0EE0FFF1FEC0FFD1FBF
:100420008181680F6068C9010E94E20128960FB6B9
:10043000F894DEBF0FBECDBFCF91DF91089561E08C
:100440000E94E20180ED97E00E94B7030895CF93E8
:10045000DF93EC01423018F08F8588608F874B8BDB
:100460001C8A222329F0413019F48F8584608F87FC
:1004700080E593EC0E94B7038C8160E00E943B040E
:100480008E8160E00E943B048D818F3F19F060E017
:100490000E943B046F8564FD1DC0CE0163E00E9495
:1004A0007D0184E991E10E94B703CE0163E00E94DF
:1004B0007D0184E991E10E94B703CE0163E00E94CF
:1004C0007D0186E990E00E94B703CE0162E00E94C0
:1004D0007D0116C06062CE010E94E20184E991E1D3
:1004E0000E94B7036F856062CE010E94E20186E937
:1004F00090E00E94B7036F856062CE010E94E20126
:100500006F856062CE010E94E20184E0888BCE019B
:100510000E94E601CE010E941F0282E0898BCE017B
:1005200066E00E94E201DF91CF9108956F927F9281
:100530008F92AF92CF92EF920F931F93DF93CF934F
:10054000CDB7DEB73C01162F842FF30144832583FA
:100550000683E782C086A18682869D8593879E85D5
:1005600094879F8595879889968761E00E94FC0310
:10057000F30185818F3F19F061E00E94FC03F301D4
:10058000868161E00E94FC03112319F0F3011786B4
:1005900003C080E1F3018787C30160E141E020E00F
:1005A0000E942702CF91DF911F910F91EF90CF9082
:1005B000AF908F907F906F9008958F92AF92CF926F
:1005C000EF920F931F93CF93DF93DC01362F542FBD
:1005D000722F102FAE2C8C2C13961C921E921297F9
:1005E0008BE391E011969C938E9300D000D0EDB7F1
:1005F000FEB73196CDB7DEB719821182128213820F
:10060000CD0161E0432F2FEF052FE72EC12E0E9471
:1006100096020F900F900F900F90DF91CF911F9146
:100620000F91EF90CF90AF908F9008951F920F92FF
:100630000FB60F9211242F933F938F939F93AF93F5
:10064000BF938091610190916201A0916301B0918B
:100650006401309165010196A11DB11D232F2D5F0D
:100660002D3720F02D570196A11DB11D2093650156
:100670008093610190936201A0936301B093640140
:1006800080915D0190915E01A0915F01B091600148
:100690000196A11DB11D80935D0190935E01A09311
:1006A0005F01B0936001BF91AF919F918F913F9196
:1006B0002F910F900FBE0F901F9018959B01AC01CA
:1006C0007FB7F89480915D0190915E01A0915F01E8
:1006D000B091600166B5A89B05C06F3F19F0019607
:1006E000A11DB11D7FBFBA2FA92F982F8827860F74
:1006F000911DA11DB11D62E0880F991FAA1FBB1F8C
:100700006A95D1F7BC012DC0FFB7F89480915D01C7
:1007100090915E01A0915F01B0916001E6B5A89B48
:1007200005C0EF3F19F00196A11DB11DFFBFBA2F03
:10073000A92F982F88278E0F911DA11DB11DE2E0D2
:10074000880F991FAA1FBB1FEA95D1F7861B970B2D
:10075000885E9340C8F2215030404040504068517C
:100760007C4F211531054105510571F6089501971A
:1007700039F0880F991F880F991F02970197F1F799
:100780000895789484B5826084BD84B5816084BD09
:1007900085B5826085BD85B5816085BDEEE6F0E0FA
:1007A000808181608083E1E8F0E010828081826056
:1007B0008083808181608083E0E8F0E080818160D7
:1007C0008083E1EBF0E0808184608083E0EBF0E007
:1007D000808181608083EAE7F0E0808184608083AB
:1007E0008081826080838081816080838081806855
:1007F00080831092C1000895CF93DF93482F50E07B
:10080000CA0186569F4FFC0134914A575F4FFA0147
:100810008491882369F190E0880F991FFC01E859C1
:10082000FF4FA591B491FC01EE58FF4FC591D491B3
:10083000662351F42FB7F8948C91932F90958923C8
:100840008C93888189230BC0623061F42FB7F894B0
:100850008C91932F909589238C938881832B888307
:100860002FBF06C09FB7F8948C91832B8C939FBFAA
:10087000DF91CF910895482F50E0CA0182559F4FD4
:10088000FC012491CA0186569F4FFC0194914A575E
:100890005F4FFA013491332309F440C0222351F110
:1008A000233071F0243028F42130A1F0223011F5EA
:1008B00014C02630B1F02730C1F02430D9F404C080
:1008C000809180008F7703C0809180008F7D80931E
:1008D000800010C084B58F7702C084B58F7D84BD41
:1008E00009C08091B0008F7703C08091B0008F7DE8
:1008F0008093B000E32FF0E0EE0FFF1FEE58FF4FA4
:10090000A591B4912FB7F894662321F48C9190951A
:10091000892302C08C91892B8C932FBF0895682F57
:1009200070E0CB0182559F4FFC012491CB0186568C
:100930009F4FFC0144916A577F4FFB01949199238B
:1009400019F420E030E03CC0222351F1233071F053
:10095000243028F42130A1F0223011F514C02630C3
:10096000B1F02730C1F02430D9F404C08091800068
:100970008F7703C0809180008F7D8093800010C0AE
:1009800084B58F7702C084B58F7D84BD09C0809106
:10099000B0008F7703C08091B0008F7D8093B0004E
:1009A000892F90E0880F991F84589F4FFC01A591D3
:1009B000B4918C9120E030E0842311F021E030E00C
:1009C000C9010895CF93DF930E94C1030E94DE0006
:1009D000C0E0D0E00E949F002097E1F30E94000059
:1009E000F9CFCF92DF92EF92FF920F931F93CF93A5
:1009F000DF937C016B018A01C0E0D0E00FC0D6011B
:100A00006D916D01D701ED91FC910190F081E02D88
:100A1000C7010995C80FD91F0150104001151105D4
:100A200071F7CE01DF91CF911F910F91FF90EF9061
:100A3000DF90CF900895CF93DF93EC01611571059E
:100A400019F420E030E00FC0DB010D900020E9F741
:100A50001197A61BB70BE881F9810280F381E02D85
:100A6000AD0109959C01C901DF91CF9108950E94C4
:100A70001B050895EE0FFF1F0590F491E02D0994DA
:040A8000F894FFCF18
:100A8400666972652064657465637465640066698B
:100A94007265204E6F7420006465746563746564C8
:100AA400006669726520646574656374696F6E00BD
:100AB40053797374656D0000000000DC01F10400DB
:080AC400004000140054000082
:00000001FF
